{
  "contractName": "ItemManager",
  "abi": [
    {
      "anonymous": false,
      "inputs": [
        {
          "indexed": false,
          "internalType": "uint256",
          "name": "_itemIndex",
          "type": "uint256"
        },
        {
          "indexed": false,
          "internalType": "string",
          "name": "itemName",
          "type": "string"
        },
        {
          "indexed": false,
          "internalType": "uint256",
          "name": "price",
          "type": "uint256"
        },
        {
          "indexed": false,
          "internalType": "address",
          "name": "_owner",
          "type": "address"
        }
      ],
      "name": "SupplyChainStep",
      "type": "event"
    },
    {
      "anonymous": false,
      "inputs": [
        {
          "indexed": false,
          "internalType": "string",
          "name": "itemName",
          "type": "string"
        },
        {
          "indexed": false,
          "internalType": "uint256",
          "name": "price",
          "type": "uint256"
        },
        {
          "indexed": false,
          "internalType": "address",
          "name": "_owner",
          "type": "address"
        }
      ],
      "name": "addtoMarketplace",
      "type": "event"
    },
    {
      "inputs": [
        {
          "internalType": "address",
          "name": "",
          "type": "address"
        },
        {
          "internalType": "uint256",
          "name": "",
          "type": "uint256"
        }
      ],
      "name": "inventory",
      "outputs": [
        {
          "internalType": "string",
          "name": "_itemName",
          "type": "string"
        },
        {
          "internalType": "uint256",
          "name": "_priceInWei",
          "type": "uint256"
        },
        {
          "internalType": "address",
          "name": "_owner",
          "type": "address"
        },
        {
          "internalType": "uint256",
          "name": "_index",
          "type": "uint256"
        }
      ],
      "stateMutability": "view",
      "type": "function",
      "constant": true
    },
    {
      "inputs": [
        {
          "internalType": "uint256",
          "name": "",
          "type": "uint256"
        }
      ],
      "name": "storeData",
      "outputs": [
        {
          "internalType": "string",
          "name": "_itemName",
          "type": "string"
        },
        {
          "internalType": "uint256",
          "name": "_priceInWei",
          "type": "uint256"
        },
        {
          "internalType": "address",
          "name": "_owner",
          "type": "address"
        },
        {
          "internalType": "uint256",
          "name": "_index",
          "type": "uint256"
        }
      ],
      "stateMutability": "view",
      "type": "function",
      "constant": true
    },
    {
      "inputs": [
        {
          "internalType": "string",
          "name": "_itemName",
          "type": "string"
        },
        {
          "internalType": "uint256",
          "name": "_priceInWei",
          "type": "uint256"
        }
      ],
      "name": "createItem",
      "outputs": [],
      "stateMutability": "nonpayable",
      "type": "function"
    },
    {
      "inputs": [
        {
          "internalType": "uint256",
          "name": "_itemIndex",
          "type": "uint256"
        },
        {
          "internalType": "address",
          "name": "_itemOwner",
          "type": "address"
        }
      ],
      "name": "addTomarketPlace",
      "outputs": [],
      "stateMutability": "nonpayable",
      "type": "function"
    },
    {
      "inputs": [],
      "name": "getItemList",
      "outputs": [
        {
          "components": [
            {
              "internalType": "string",
              "name": "_itemName",
              "type": "string"
            },
            {
              "internalType": "uint256",
              "name": "_priceInWei",
              "type": "uint256"
            },
            {
              "internalType": "address",
              "name": "_owner",
              "type": "address"
            },
            {
              "internalType": "uint256",
              "name": "_index",
              "type": "uint256"
            }
          ],
          "internalType": "struct ItemManager.S_Item[]",
          "name": "",
          "type": "tuple[]"
        }
      ],
      "stateMutability": "view",
      "type": "function",
      "constant": true
    },
    {
      "inputs": [],
      "name": "marketPlaceList",
      "outputs": [
        {
          "components": [
            {
              "internalType": "string",
              "name": "_itemName",
              "type": "string"
            },
            {
              "internalType": "uint256",
              "name": "_priceInWei",
              "type": "uint256"
            },
            {
              "internalType": "address",
              "name": "_owner",
              "type": "address"
            },
            {
              "internalType": "uint256",
              "name": "_index",
              "type": "uint256"
            }
          ],
          "internalType": "struct ItemManager.S_Item[]",
          "name": "",
          "type": "tuple[]"
        }
      ],
      "stateMutability": "view",
      "type": "function",
      "constant": true
    },
    {
      "inputs": [
        {
          "internalType": "uint256",
          "name": "_itemIndex",
          "type": "uint256"
        },
        {
          "internalType": "address payable",
          "name": "_itemOwner",
          "type": "address"
        }
      ],
      "name": "purchaseItem",
      "outputs": [],
      "stateMutability": "payable",
      "type": "function",
      "payable": true
    }
  ],
  "bytecode": "0x608060405234801561001057600080fd5b50611da7806100206000396000f3fe6080604052600436106100705760003560e01c806368f222fd1161004e57806368f222fd146101095780637bfe9efd146101495780638c55174214610165578063a841b6eb1461018e57610070565b8063063b2e5b1461007557806316b95176146100a05780633ce8bc4d146100e0575b600080fd5b34801561008157600080fd5b5061008a6101b9565b60405161009791906119b3565b60405180910390f35b3480156100ac57600080fd5b506100c760048036038101906100c29190611778565b610350565b6040516100d79493929190611a13565b60405180910390f35b3480156100ec57600080fd5b50610107600480360381019061010291906117a1565b610438565b005b34801561011557600080fd5b50610130600480360381019061012b91906116e8565b610a21565b6040516101409493929190611a13565b60405180910390f35b610163600480360381019061015e91906117dd565b610b16565b005b34801561017157600080fd5b5061018c60048036038101906101879190611724565b61106a565b005b34801561019a57600080fd5b506101a3611225565b6040516101b091906119b3565b60405180910390f35b60606000803373ffffffffffffffffffffffffffffffffffffffff1673ffffffffffffffffffffffffffffffffffffffff168152602001908152602001600020805480602002602001604051908101604052809291908181526020016000905b82821015610347578382906000526020600020906004020160405180608001604052908160008201805461024c90611c2b565b80601f016020809104026020016040519081016040528092919081815260200182805461027890611c2b565b80156102c55780601f1061029a576101008083540402835291602001916102c5565b820191906000526020600020905b8154815290600101906020018083116102a857829003601f168201915b50505050508152602001600182015481526020016002820160009054906101000a900473ffffffffffffffffffffffffffffffffffffffff1673ffffffffffffffffffffffffffffffffffffffff1673ffffffffffffffffffffffffffffffffffffffff16815260200160038201548152505081526020019060010190610219565b50505050905090565b6001818154811061036057600080fd5b906000526020600020906004020160009150905080600001805461038390611c2b565b80601f01602080910402602001604051908101604052809291908181526020018280546103af90611c2b565b80156103fc5780601f106103d1576101008083540402835291602001916103fc565b820191906000526020600020905b8154815290600101906020018083116103df57829003601f168201915b5050505050908060010154908060020160009054906101000a900473ffffffffffffffffffffffffffffffffffffffff16908060030154905084565b60008060008373ffffffffffffffffffffffffffffffffffffffff1673ffffffffffffffffffffffffffffffffffffffff16815260200190815260200160002083815481106104b0577f4e487b7100000000000000000000000000000000000000000000000000000000600052603260045260246000fd5b90600052602060002090600402016040518060800160405290816000820180546104d990611c2b565b80601f016020809104026020016040519081016040528092919081815260200182805461050590611c2b565b80156105525780601f1061052757610100808354040283529160200191610552565b820191906000526020600020905b81548152906001019060200180831161053557829003601f168201915b50505050508152602001600182015481526020016002820160009054906101000a900473ffffffffffffffffffffffffffffffffffffffff1673ffffffffffffffffffffffffffffffffffffffff1673ffffffffffffffffffffffffffffffffffffffff16815260200160038201548152505090506001805490508160600181815250506001819080600181540180825580915050600190039060005260206000209060040201600090919091909150600082015181600001908051906020019061061e929190611380565b506020820151816001015560408201518160020160006101000a81548173ffffffffffffffffffffffffffffffffffffffff021916908373ffffffffffffffffffffffffffffffffffffffff160217905550606082015181600301555050600060016000808573ffffffffffffffffffffffffffffffffffffffff1673ffffffffffffffffffffffffffffffffffffffff168152602001908152602001600020805490506106cc9190611b67565b90506000808473ffffffffffffffffffffffffffffffffffffffff1673ffffffffffffffffffffffffffffffffffffffff1681526020019081526020016000208181548110610744577f4e487b7100000000000000000000000000000000000000000000000000000000600052603260045260246000fd5b90600052602060002090600402016000808573ffffffffffffffffffffffffffffffffffffffff1673ffffffffffffffffffffffffffffffffffffffff16815260200190815260200160002085815481106107c8577f4e487b7100000000000000000000000000000000000000000000000000000000600052603260045260246000fd5b906000526020600020906004020160008201816000019080546107ea90611c2b565b6107f5929190611406565b50600182015481600101556002820160009054906101000a900473ffffffffffffffffffffffffffffffffffffffff168160020160006101000a81548173ffffffffffffffffffffffffffffffffffffffff021916908373ffffffffffffffffffffffffffffffffffffffff16021790555060038201548160030155905050836000808573ffffffffffffffffffffffffffffffffffffffff1673ffffffffffffffffffffffffffffffffffffffff16815260200190815260200160002085815481106108eb577f4e487b7100000000000000000000000000000000000000000000000000000000600052603260045260246000fd5b9060005260206000209060040201600301819055506000808473ffffffffffffffffffffffffffffffffffffffff1673ffffffffffffffffffffffffffffffffffffffff168152602001908152602001600020805480610974577f4e487b7100000000000000000000000000000000000000000000000000000000600052603160045260246000fd5b6001900381819060005260206000209060040201600080820160006109999190611493565b60018201600090556002820160006101000a81549073ffffffffffffffffffffffffffffffffffffffff02191690556003820160009055505090557fb61147c4d2f06ffce7dcfc8a14456f1235a7d4d0e9131282425be8630f95ab55826000015183602001518460400151604051610a13939291906119d5565b60405180910390a150505050565b60006020528160005260406000208181548110610a3d57600080fd5b906000526020600020906004020160009150915050806000018054610a6190611c2b565b80601f0160208091040260200160405190810160405280929190818152602001828054610a8d90611c2b565b8015610ada5780601f10610aaf57610100808354040283529160200191610ada565b820191906000526020600020905b815481529060010190602001808311610abd57829003601f168201915b5050505050908060010154908060020160009054906101000a900473ffffffffffffffffffffffffffffffffffffffff16908060030154905084565b600060018381548110610b52577f4e487b7100000000000000000000000000000000000000000000000000000000600052603260045260246000fd5b9060005260206000209060040201604051806080016040529081600082018054610b7b90611c2b565b80601f0160208091040260200160405190810160405280929190818152602001828054610ba790611c2b565b8015610bf45780601f10610bc957610100808354040283529160200191610bf4565b820191906000526020600020905b815481529060010190602001808311610bd757829003601f168201915b50505050508152602001600182015481526020016002820160009054906101000a900473ffffffffffffffffffffffffffffffffffffffff1673ffffffffffffffffffffffffffffffffffffffff1673ffffffffffffffffffffffffffffffffffffffff16815260200160038201548152505090506000803373ffffffffffffffffffffffffffffffffffffffff1673ffffffffffffffffffffffffffffffffffffffff1681526020019081526020016000208054905081606001818152505033816040019073ffffffffffffffffffffffffffffffffffffffff16908173ffffffffffffffffffffffffffffffffffffffff16815250506000803373ffffffffffffffffffffffffffffffffffffffff1673ffffffffffffffffffffffffffffffffffffffff1681526020019081526020016000208190806001815401808255809150506001900390600052602060002090600402016000909190919091506000820151816000019080519060200190610d70929190611380565b506020820151816001015560408201518160020160006101000a81548173ffffffffffffffffffffffffffffffffffffffff021916908373ffffffffffffffffffffffffffffffffffffffff160217905550606082015181600301555050600060018080549050610de19190611b67565b905060018181548110610e1d577f4e487b7100000000000000000000000000000000000000000000000000000000600052603260045260246000fd5b906000526020600020906004020160018581548110610e65577f4e487b7100000000000000000000000000000000000000000000000000000000600052603260045260246000fd5b90600052602060002090600402016000820181600001908054610e8790611c2b565b610e92929190611406565b50600182015481600101556002820160009054906101000a900473ffffffffffffffffffffffffffffffffffffffff168160020160006101000a81548173ffffffffffffffffffffffffffffffffffffffff021916908373ffffffffffffffffffffffffffffffffffffffff160217905550600382015481600301559050508360018581548110610f4c577f4e487b7100000000000000000000000000000000000000000000000000000000600052603260045260246000fd5b9060005260206000209060040201600301819055506001805480610f99577f4e487b7100000000000000000000000000000000000000000000000000000000600052603160045260246000fd5b600190038181906000526020600020906004020160008082016000610fbe9190611493565b60018201600090556002820160006101000a81549073ffffffffffffffffffffffffffffffffffffffff0219169055600382016000905550509055343373ffffffffffffffffffffffffffffffffffffffff1631111561101d57600080fd5b8273ffffffffffffffffffffffffffffffffffffffff166108fc349081150290604051600060405180830381858888f19350505050158015611063573d6000803e3d6000fd5b5050505050565b60008060003373ffffffffffffffffffffffffffffffffffffffff1673ffffffffffffffffffffffffffffffffffffffff1681526020019081526020016000209050600060405180608001604052808581526020018481526020013373ffffffffffffffffffffffffffffffffffffffff16815260200183805490508152509050818190806001815401808255809150506001900390600052602060002090600402016000909190919091506000820151816000019080519060200190611132929190611380565b506020820151816001015560408201518160020160006101000a81548173ffffffffffffffffffffffffffffffffffffffff021916908373ffffffffffffffffffffffffffffffffffffffff160217905550606082015181600301555050816000803373ffffffffffffffffffffffffffffffffffffffff1673ffffffffffffffffffffffffffffffffffffffff1681526020019081526020016000209080546111dd9291906114d3565b507f9edad0f462fd8f168e8f1b96ad8326447fd29e5ed3e02f16a6350f65513db0ed82805490508585336040516112179493929190611a5f565b60405180910390a150505050565b60606001805480602002602001604051908101604052809291908181526020016000905b82821015611377578382906000526020600020906004020160405180608001604052908160008201805461127c90611c2b565b80601f01602080910402602001604051908101604052809291908181526020018280546112a890611c2b565b80156112f55780601f106112ca576101008083540402835291602001916112f5565b820191906000526020600020905b8154815290600101906020018083116112d857829003601f168201915b50505050508152602001600182015481526020016002820160009054906101000a900473ffffffffffffffffffffffffffffffffffffffff1673ffffffffffffffffffffffffffffffffffffffff1673ffffffffffffffffffffffffffffffffffffffff16815260200160038201548152505081526020019060010190611249565b50505050905090565b82805461138c90611c2b565b90600052602060002090601f0160209004810192826113ae57600085556113f5565b82601f106113c757805160ff19168380011785556113f5565b828001600101855582156113f5579182015b828111156113f45782518255916020019190600101906113d9565b5b50905061140291906115c6565b5090565b82805461141290611c2b565b90600052602060002090601f0160209004810192826114345760008555611482565b82601f106114455780548555611482565b8280016001018555821561148257600052602060002091601f016020900482015b82811115611481578254825591600101919060010190611466565b5b50905061148f91906115c6565b5090565b50805461149f90611c2b565b6000825580601f106114b157506114d0565b601f0160209004906000526020600020908101906114cf91906115c6565b5b50565b8280548282559060005260206000209060040281019282156115b55760005260206000209160040282015b828111156115b4578282600082018160000190805461151c90611c2b565b611527929190611406565b50600182015481600101556002820160009054906101000a900473ffffffffffffffffffffffffffffffffffffffff168160020160006101000a81548173ffffffffffffffffffffffffffffffffffffffff021916908373ffffffffffffffffffffffffffffffffffffffff160217905550600382015481600301555050916004019190600401906114fe565b5b5090506115c291906115e3565b5090565b5b808211156115df5760008160009055506001016115c7565b5090565b5b8082111561163d57600080820160006115fd9190611493565b60018201600090556002820160006101000a81549073ffffffffffffffffffffffffffffffffffffffff02191690556003820160009055506004016115e4565b5090565b600061165461164f84611ad0565b611aab565b90508281526020810184848401111561166c57600080fd5b611677848285611be9565b509392505050565b60008135905061168e81611d2c565b92915050565b6000813590506116a381611d43565b92915050565b600082601f8301126116ba57600080fd5b81356116ca848260208601611641565b91505092915050565b6000813590506116e281611d5a565b92915050565b600080604083850312156116fb57600080fd5b60006117098582860161167f565b925050602061171a858286016116d3565b9150509250929050565b6000806040838503121561173757600080fd5b600083013567ffffffffffffffff81111561175157600080fd5b61175d858286016116a9565b925050602061176e858286016116d3565b9150509250929050565b60006020828403121561178a57600080fd5b6000611798848285016116d3565b91505092915050565b600080604083850312156117b457600080fd5b60006117c2858286016116d3565b92505060206117d38582860161167f565b9150509250929050565b600080604083850312156117f057600080fd5b60006117fe858286016116d3565b925050602061180f85828601611694565b9150509250929050565b60006118258383611932565b905092915050565b61183681611b9b565b82525050565b61184581611b9b565b82525050565b600061185682611b11565b6118608185611b34565b93508360208202850161187285611b01565b8060005b858110156118ae578484038952815161188f8582611819565b945061189a83611b27565b925060208a01995050600181019050611876565b50829750879550505050505092915050565b60006118cb82611b1c565b6118d58185611b45565b93506118e5818560208601611bf8565b6118ee81611d1b565b840191505092915050565b600061190482611b1c565b61190e8185611b56565b935061191e818560208601611bf8565b61192781611d1b565b840191505092915050565b6000608083016000830151848203600086015261194f82826118c0565b91505060208301516119646020860182611995565b506040830151611977604086018261182d565b50606083015161198a6060860182611995565b508091505092915050565b61199e81611bdf565b82525050565b6119ad81611bdf565b82525050565b600060208201905081810360008301526119cd818461184b565b905092915050565b600060608201905081810360008301526119ef81866118f9565b90506119fe60208301856119a4565b611a0b604083018461183c565b949350505050565b60006080820190508181036000830152611a2d81876118f9565b9050611a3c60208301866119a4565b611a49604083018561183c565b611a5660608301846119a4565b95945050505050565b6000608082019050611a7460008301876119a4565b8181036020830152611a8681866118f9565b9050611a9560408301856119a4565b611aa2606083018461183c565b95945050505050565b6000611ab5611ac6565b9050611ac18282611c5d565b919050565b6000604051905090565b600067ffffffffffffffff821115611aeb57611aea611cec565b5b611af482611d1b565b9050602081019050919050565b6000819050602082019050919050565b600081519050919050565b600081519050919050565b6000602082019050919050565b600082825260208201905092915050565b600082825260208201905092915050565b600082825260208201905092915050565b6000611b7282611bdf565b9150611b7d83611bdf565b925082821015611b9057611b8f611c8e565b5b828203905092915050565b6000611ba682611bbf565b9050919050565b6000611bb882611bbf565b9050919050565b600073ffffffffffffffffffffffffffffffffffffffff82169050919050565b6000819050919050565b82818337600083830152505050565b60005b83811015611c16578082015181840152602081019050611bfb565b83811115611c25576000848401525b50505050565b60006002820490506001821680611c4357607f821691505b60208210811415611c5757611c56611cbd565b5b50919050565b611c6682611d1b565b810181811067ffffffffffffffff82111715611c8557611c84611cec565b5b80604052505050565b7f4e487b7100000000000000000000000000000000000000000000000000000000600052601160045260246000fd5b7f4e487b7100000000000000000000000000000000000000000000000000000000600052602260045260246000fd5b7f4e487b7100000000000000000000000000000000000000000000000000000000600052604160045260246000fd5b6000601f19601f8301169050919050565b611d3581611b9b565b8114611d4057600080fd5b50565b611d4c81611bad565b8114611d5757600080fd5b50565b611d6381611bdf565b8114611d6e57600080fd5b5056fea2646970667358221220903d1318367890ca735f44d2b5abafe692f46e880b1576dbf84273d0a9d8d4be64736f6c63430008030033",
  "immutableReferences": {},
  "source": "pragma solidity ^0.8.0;\n\n// import \"./Item.sol\";\n\ncontract ItemManager {\n\n    struct S_Item {\n        string _itemName;\n        uint _priceInWei;\n        address _owner;\n        uint _index;\n    }\n    \n    mapping(address => S_Item[]) public inventory;\n    \n    event SupplyChainStep(uint _itemIndex, string itemName, uint price, address _owner);\n    event addtoMarketplace(string itemName, uint price, address _owner);\n\n    S_Item[] public storeData;  \n\n    \n    function createItem(string memory _itemName, uint _priceInWei) public {\n        S_Item[] storage userItems = inventory[msg.sender];\n        S_Item memory s_item = S_Item(\n            _itemName,\n            _priceInWei,\n            msg.sender,\n            userItems.length\n            );\n        userItems.push(s_item);\n        inventory[msg.sender] = userItems;\n        emit SupplyChainStep(userItems.length, _itemName, _priceInWei,msg.sender);        \n    }    \n    \n    function addTomarketPlace(uint _itemIndex, address _itemOwner) public {\n    \n    // add item which is in inventory remove it and store it stordata array and push it\n       \n       //change index\n        S_Item memory _data  = inventory[_itemOwner][_itemIndex];\n       _data._index = storeData.length;\n       \n        //store data in array\n        storeData.push(_data);\n      \n        //removing data from the user array\n        uint lastItemIndex = (inventory[_itemOwner]).length - 1;\n        inventory[_itemOwner][_itemIndex] = inventory[_itemOwner][lastItemIndex];\n         (inventory[_itemOwner][_itemIndex])._index = _itemIndex;\n        (inventory[_itemOwner]).pop();\n    \n        \n        emit addtoMarketplace(_data._itemName,_data._priceInWei,_data._owner);\n\n    }\n\n\n    function getItemList() public view returns(S_Item[] memory) {\n        return inventory[msg.sender];\n    }\n\n    function marketPlaceList() public view returns(S_Item[] memory){\n            return storeData;\n    }\n    \n    function purchaseItem(uint _itemIndex, address payable _itemOwner) public payable{\n        S_Item memory _data = storeData[_itemIndex];\n         _data._index =  (inventory[msg.sender]).length;\n        _data._owner = msg.sender;\n \n        (inventory[msg.sender]).push(_data);\n   \n        // delete in gas efficient manner\n\n        uint lastItemIndex = storeData.length - 1;\n        storeData[_itemIndex] = storeData[lastItemIndex];\n        storeData[_itemIndex]._index = _itemIndex;\n         storeData.pop();\n        \n        require(msg.sender.balance<=msg.value);\n        _itemOwner.transfer(msg.value);\n \n    }\n\n}",
  "sourcePath": "/home/ethereum01/Documents/Ecomdapp/contracts/ItemManager.sol",
  "compiler": {
    "name": "solc",
    "version": "0.8.3+commit.8d00100c.Emscripten.clang"
  },
  "schemaVersion": "3.3.4",
  "updatedAt": "2021-04-19T11:05:06.755Z",
  "networkType": "ethereum",
  "devdoc": {
    "kind": "dev",
    "methods": {},
    "version": 1
  },
  "userdoc": {
    "kind": "user",
    "methods": {},
    "version": 1
  }
}