{
  "contractName": "Item",
  "abi": [
    {
      "inputs": [
        {
          "internalType": "contract ItemManager",
          "name": "_parentContract",
          "type": "address"
        },
        {
          "internalType": "uint256",
          "name": "_priceInWei",
          "type": "uint256"
        },
        {
          "internalType": "string",
          "name": "_identifier",
          "type": "string"
        }
      ],
      "stateMutability": "nonpayable",
      "type": "constructor"
    },
    {
      "inputs": [],
      "name": "identifier",
      "outputs": [
        {
          "internalType": "string",
          "name": "",
          "type": "string"
        }
      ],
      "stateMutability": "view",
      "type": "function"
    },
    {
      "inputs": [],
      "name": "index",
      "outputs": [
        {
          "internalType": "uint256",
          "name": "",
          "type": "uint256"
        }
      ],
      "stateMutability": "view",
      "type": "function"
    },
    {
      "inputs": [],
      "name": "priceInWei",
      "outputs": [
        {
          "internalType": "uint256",
          "name": "",
          "type": "uint256"
        }
      ],
      "stateMutability": "view",
      "type": "function"
    }
  ],
  "bytecode": "0x608060405234801561001057600080fd5b506040516106db3803806106db833981810160405281019061003291906101ce565b8160008190555082600360006101000a81548173ffffffffffffffffffffffffffffffffffffffff021916908373ffffffffffffffffffffffffffffffffffffffff1602179055508060029080519060200190610090929190610099565b5050505061040c565b8280546100a59061030c565b90600052602060002090601f0160209004810192826100c7576000855561010e565b82601f106100e057805160ff191683800117855561010e565b8280016001018555821561010e579182015b8281111561010d5782518255916020019190600101906100f2565b5b50905061011b919061011f565b5090565b5b80821115610138576000816000905550600101610120565b5090565b600061014f61014a8461025a565b610235565b90508281526020810184848401111561016757600080fd5b6101728482856102d9565b509392505050565b600081519050610189816103de565b92915050565b600082601f8301126101a057600080fd5b81516101b084826020860161013c565b91505092915050565b6000815190506101c8816103f5565b92915050565b6000806000606084860312156101e357600080fd5b60006101f18682870161017a565b9350506020610202868287016101b9565b925050604084015167ffffffffffffffff81111561021f57600080fd5b61022b8682870161018f565b9150509250925092565b600061023f610250565b905061024b828261033e565b919050565b6000604051905090565b600067ffffffffffffffff8211156102755761027461039e565b5b61027e826103cd565b9050602081019050919050565b6000610296826102af565b9050919050565b60006102a88261028b565b9050919050565b600073ffffffffffffffffffffffffffffffffffffffff82169050919050565b6000819050919050565b60005b838110156102f75780820151818401526020810190506102dc565b83811115610306576000848401525b50505050565b6000600282049050600182168061032457607f821691505b602082108114156103385761033761036f565b5b50919050565b610347826103cd565b810181811067ffffffffffffffff821117156103665761036561039e565b5b80604052505050565b7f4e487b7100000000000000000000000000000000000000000000000000000000600052602260045260246000fd5b7f4e487b7100000000000000000000000000000000000000000000000000000000600052604160045260246000fd5b6000601f19601f8301169050919050565b6103e78161029d565b81146103f257600080fd5b50565b6103fe816102cf565b811461040957600080fd5b50565b6102c08061041b6000396000f3fe608060405234801561001057600080fd5b50600436106100415760003560e01c80632986c0e5146100465780633c8da588146100645780637998a1c414610082575b600080fd5b61004e6100a0565b60405161005b91906101a4565b60405180910390f35b61006c6100a6565b60405161007991906101a4565b60405180910390f35b61008a6100ac565b6040516100979190610182565b60405180910390f35b60015481565b60005481565b600280546100b990610218565b80601f01602080910402602001604051908101604052809291908181526020018280546100e590610218565b80156101325780601f1061010757610100808354040283529160200191610132565b820191906000526020600020905b81548152906001019060200180831161011557829003601f168201915b505050505081565b6000610145826101bf565b61014f81856101ca565b935061015f8185602086016101e5565b61016881610279565b840191505092915050565b61017c816101db565b82525050565b6000602082019050818103600083015261019c818461013a565b905092915050565b60006020820190506101b96000830184610173565b92915050565b600081519050919050565b600082825260208201905092915050565b6000819050919050565b60005b838110156102035780820151818401526020810190506101e8565b83811115610212576000848401525b50505050565b6000600282049050600182168061023057607f821691505b602082108114156102445761024361024a565b5b50919050565b7f4e487b7100000000000000000000000000000000000000000000000000000000600052602260045260246000fd5b6000601f19601f830116905091905056fea2646970667358221220ee3c302f6f2272fbabe4be99fab8740707a1b71b7ce0b90821ebfd1ab370395064736f6c63430008030033",
  "immutableReferences": {},
  "source": "pragma solidity ^0.8.0;\n\nimport \"./ItemManager.sol\";\n\ncontract Item {\n    uint public priceInWei;\n    uint public index;\n    string public identifier;\n\n    ItemManager parentContract;\n\n    constructor(ItemManager _parentContract,uint _priceInWei, string memory _identifier) {\n        priceInWei = _priceInWei;\n        parentContract = _parentContract;\n        identifier = _identifier;\n    }\n\n}",
  "sourcePath": "/home/ethereum01/Documents/Ecomdapp/contracts/Item.sol",
  "compiler": {
    "name": "solc",
    "version": "0.8.3+commit.8d00100c.Emscripten.clang"
  },
  "schemaVersion": "3.3.4",
  "updatedAt": "2021-04-14T12:18:32.569Z",
  "devdoc": {
    "kind": "dev",
    "methods": {},
    "version": 1
  },
  "userdoc": {
    "kind": "user",
    "methods": {},
    "version": 1
  }
}